:03000000020C945B
:0C0C9400787FE4F6D8FD758120020CDBAF
:1006940020205368756B65456E676C69736800202C
:1006A4002020204578616D706C65206F6620576549
:1006B400656B6C792064617461002D2D2D2D2D2DB9
:1006C4002D2D2D2D2D535441544953544943532D0D
:1006D4002D2D2D2D2D2D2D2D2D00202020202020C1
:1006E4002020202020202020202020202020202006
:1006F4002020202020202020200020202020202016
:1007040020207C2020574F52445320207C20204717
:1007140052414D4D415220207C20002D2D2D2D2D58
:100724002D2D2D2D2D2D2D2D2D2D2D2D2D2D2D2DF5
:100734002D2D2D2D2D2D2D2D2D2D00202031302D25
:100744003230207C202031352F313520207C202070
:100754002031382F32302020207C00202031302DD1
:100764003231207C202031342F313520207C202050
:100774002031352F32302020207C00202031302DB4
:100784003232207C202031352F313520207C20202E
:100794002031372F32302020207C00202031302D92
:1007A4003233207C202031352F313520207C20200D
:1007B4002032302F32302020207C00202031302D78
:1007C4003234207C202031302F313520207C2020F1
:1007D4002031352F32302020207C00202031302D54
:1007E4003235207C202031322F313520207C2020CE
:1007F4002031342F32302020207C00202031302D35
:100804003236207C202031342F313520207C2020AA
:100814002031392F32302020207C002020544F54A6
:10082400414C207C202031352F313035207C202054
:100834002031382F31343020207C0020202020200B
:100844002020202020202020205052494E54205483
:0B085400494D453A2031302D3236006E
:100ED10042008E000054000E00C000F900A400B0D2
:100EE10000990092008200F80080009041008D007E
:080EF10041009100C101C18024
:10100400759A50438E14759CDC439A0275AF012285
:10000E00438E805389F0758AAE758CFBC28DD28C6F
:05001E00D2A9D2AF22BF
:1000260053877F759850438E40758920758BFD7573
:0B0036008DFDD28ED2ACD2AFC2992259
:0C1014007F037E1A7DDFDDFEDEFCDFFACC
:0110200022AD
:100F4200120F5375A0FFD280D281C282D28375A0C4
:010F5200A3FB
:040F53007F34DFFE0A
:010F57002277
:03102D0075991B97
:061030003099FDC2992277
:0910360012102D759932021030E0
:0600030075990A0210309D
:100DC900E490008EF0A3F090008EE0FEA3E02428CA
:100DD900F58274003EF583E0601E90008EE475F0A4
:100DE9000112034EFE742825F0F58274003EF58346
:100DF900E0F59912103080CF7E007F657D007B0180
:070E09007A00792802049B26
:100E430078287C007D017BFF12047E120DC91200FD
:100E530003120E6C7A07791F78287C007D017BFFD3
:090E630012047E120DC9120003F5
:090E6C0012102D7599400210309E
:100F7C0075991B1210307599331210308F9902101D
:010F8C003034
:100E7500E4FBFAEF64014E70062414FBE433FAED4B
:100E850064014C700774282BFBE43AFA75991B1220
:0F0E95001030759921121030AF038F9902103071
:100EFA0075991B1210307599241210308F9912109F
:080F0A0030AF058F9902103091
:100F580075991B121030759976121030E4F59902C4
:020F6800103047
:100F8D0075991B1210307599611210308F990210DE
:010F9D003023
:100F9E0075991B1210307599201210308F9902100E
:010FAE003012
:100FAF0075991B1210307599611210308F990210BC
:010FBF003001
:100F120075991B1210307599501210308F9912105A
:080F220030AF058F9902103079
:0C10210075991B12103075992A021030CE
:100F6A0075991B12103075994A121030E4F59902DE
:020F7A00103035
:100FC00075991D1210307599481210308F990210C2
:010FD00030F0
:100F2A0075991C1210307599531210308F9912103E
:080F3A0030AF058F9902103061
:100FD10075991D1210307599681210308F99021091
:010FE10030DF
:100FE20075991D1210307599771210308F99021071
:010FF20030CE
:100FF30075991D1210307599781210308F9902105F
:0110030030BC
:100D2000120E6C7F1E7E00120FF375991D1210308B
:100D300075996B1210307599491210307599081217
:100D40001030759931121030759932121030759932
:100D500033121030759934121030759935121030E5
:100D600075993612103075993712103075993812FE
:050D7000103002000339
:100B2900120E6C7D017C007F017E00120E75782803
:100B39007C007BFF7A067994120E637A0679A312F8
:100B49000E5B120003120E6C78287C007D017BFF7E
:100B59007A0679BE120E6378287C007D017BFF7AC4
:100B69000679DE120E637A0679FE120E437A077948
:100B79003F120E4378287C007D017BFF7A07795F5D
:100B8900120E4B78287C007D017BFF7A07797F1252
:100B99000E4B78287C007D017BFF7A07799F120E26
:100BA9004B78287C007D017BFF7A0779BF120E4BB9
:100BB90078287C007D017BFF7A0779DF120E4B785C
:100BC900287C007D017BFF7A0779FF120E4B78287C
:100BD9007C007D017BFF7A08791F120E4B78287CF7
:100BE900007D017BFF7A08793F12047E120DC9123C
:080BF9000003120003020003D7
:0D0EA4007F017E00120EB1C2B77F017E00FB
:100EB100D3EF9400EE94004016E4FDEDC3947D74ED
:0F0EC10080948050030D80F3EF1F70E41E80E1DA
:010ED00022FF
:100D750090009C12038100000000E47F087E07FDBF
:100D8500FC90009CE0F8A3E0F9A3E0FAA3E0FBC324
:100D95001203645026120EA4D2B790009CE0FCA367
:100DA500E0FDA3E0FEA3E02401FFE43EFEE43DFDFB
:100DB500E43CFC90009C12037580BFD2B77FD07EC7
:040DC50007020EB162
:040E1000AB07AA067C
:100E14007C01ECD39BEA6480F87480985020E4F958
:100E2400E9C394C8748094805008120EA4D2B70900
:0E0E340080EED2B77FD07E07120EB10C80D4B4
:010E4200228D
:10085F00900000E0FEA3E0FF4E70027B61EF6404A6
:10086F004E70027B62EF64804E70027B63EF648494
:10087F004E70027B648B9B20852B3085FD121014EC
:10088F00900095E004F07006900094E004F0900062
:10089F0094E0FEA3E0FF7C007D0212031890009409
:1008AF00ECF0A3EDF0900094E07002A3E07003D29F
:1008BF008C22900000E07004A3E064047044D280A6
:1008CF00D281D282C28375A086120F5375A0FFD238
:1008DF0080D281C282D28375A08C120F5375A0FF74
:1008EF00D280C281D282D28375A0A0120F5375A07D
:1008FF00FFC280D281D282D28375A08C120F537522
:10090F00A0FF900000E07002A3E0702ED280D28191
:10091F00D282C28375A0A1120F4275A0FFD280C2EE
:10092F0081D282120F4E75A0FFC280D281D282D2A5
:10093F008375A082120F5375A0FF900000E0700422
:10094F00A3E064807033D280D281D282C28375A03B
:10095F0087120F4275A0FFD280C281D282D28375D7
:10096F00A08B120F5375A0FFC280D281D282D28387
:10097F0075A0FF120F5375A0FF900000E07004A345
:10098F00E064846003020886D280D281D282C2835F
:10099F0075A08B120F5375A0FFD280D281C282D265
:1009AF008375A0FF120F5375A0FFD280C281D28230
:1009BF00D28375A08C120F5375A0FFC280D281D243
:0F09CF0082D28375A0FF120F5375A0FF02088616
:10004600E490009AF0A3F0900096F0A3F09000944C
:10005600F0A3F0900092F0A3F0900024F0A3F0FE3D
:100066007F0AFD7B017A00790212049B1200261298
:100076001004121036120E6C12000E43B70143B86C
:100086000143B60143B50120842B3084FD121014C0
:10009600900093E004F07006900092E004F0900067
:1000A60092E0FEA3E0FF7C007D021203189000920E
:1000B600ECF0A3EDF020852B3085FD121014900096
:1000C60095E004F07006900094E004F0900094E04F
:1000D600FEA3E0FF7C007D02120318900094ECF072
:1000E600A3EDF0900092E07004A3E06401703590F7
:1000F6000094E07002A3E0702B120E6C120B299094
:100106000093E004F07006900092E004F0900092F4
:10011600E0FEA3E0FF7C007D02120318900092EC43
:10012600F0A3EDF0900092E07002A3E0701390004F
:1001360094E07004A3E064017007C28C120F58D2D9
:100146008C900091E0700302008DE4900024F0A3EF
:10015600F0900091F0900098F0A3F0900098E0FEE7
:10016600A3E0FFC39404EE64809480400302008DF4
:10017600EF25E0FFEE33FE74022FF58274003EF5A4
:1001860083E0FEA3E0FF64304E700690009AF0A371
:10019600F0EF64314E700790009AF0A304F0EF641C
:1001A600324E700890009AF0A37402F0EF64334E5A
:1001B600700890009AF0A37403F0EF64344E700850
:1001C60090009AF0A37404F0EF64354E7008900026
:1001D6009AF0A37405F0EF64364E700890009AF01A
:1001E600A37406F0EF64374E700890009AF0A3747B
:1001F60007F0EF64384E700890009AF0A37408F088
:10020600EF64394E700890009AF0A37409F09000DC
:1002160098E07002A3E0701B90009AE0FEA3E0FF56
:100226007C037DE81202B1900025E02FF0900024B7
:10023600E03EF0900098E0FAA3E0FB64014A7019F2
:10024600A3E0FEA3E0FF7C007D641202B1900025CE
:10025600E02FF0900024E03EF0EB64024A701B9021
:10026600009AE0FEA3E0FF7C007D0A1202B1900036
:1002760025E02FF0900024E03EF0900098E0700416
:10028600A3E06403701490009AE0FEA3E0FF9000E0
:1002960025E02FF0900024E03EF0900099E004F075
:0B02A6007006900098E004F002016177
:03000B000204C725
:1004C700C0E0C0F0C083C082C0D075D000C000C0FB
:1004D70002C003C004C005C006C00720842B3084B7
:1004E700FD121014900093E004F07006900092E063
:1004F70004F0900092E0FEA3E0FF7C007D0212036F
:1005070018900092ECF0A3EDF020852B3085FD12BA
:100517001014900095E004F07006900094E004F049
:10052700900094E0FEA3E0FF7C007D021203189088
:100537000094ECF0A3EDF0758AAE758CFB75A0FF07
:10054700900024E0FFA3E0A3CFF0A3EFF0900022F8
:10055700E0FAA3E0FB4A702CD280D281D282C28318
:10056700900026E0FEA3E0FF7C007D0A1202C3EDA7
:1005770025E0FFEC33FE740E2FF58274003EF58301
:10058700A3E0F5A0EB64014A703B900026E0FEA3D0
:10059700E0FF7C007D0A1202C3900026EEF0A3EF75
:1005A700F0D280D281C282D2837C007D0A1202C33C
:1005B700ED25E0FFEC33FE740E2FF58274003EF557
:1005C70083A3E0F5A0900022E07004A3E06402702A
:1005D7003B900026E0FEA3E0FF7C007D641202C38F
:1005E700900026EEF0A3EFF0D280C281D282D283B0
:1005F7007C007D0A1202C3ED25E0FFEC33FE740E8A
:100607002FF58274003EF583A3E0F5A0900022E069
:100617007004A3E064037037900026E0FEA3E0FFB8
:100627007C037DE81202C3900026EEF0A3EFF0C230
:1006370080D281D282D283E025E0FF900026E0338A
:10064700FE740E2FF58274003EF583A3E0F5A090AB
:100657000023E004F07006900022E004F0900022EE
:10066700E0FEA3E0FF7C007D04120318900022EC5B
:10067700F0A3EDF0D007D006D005D004D003D00208
:0D068700D000D0D0D082D083D0F0D0E032AF
:03002300020C01CB
:100C0100C0E0C0F0C083C082C0D075D000C000C0B9
:100C110001C002C003C004C005C006C00730985817
:100C2100AF99900000E4F0A3EFF0121014C2989075
:100C31000000E07004A3E0648070067F02FE120EE3
:100C410010900000E07002A3E070067F01FE120E1A
:100C510010900000E07004A3E0640470067F04FEBD
:100C6100120E10900000E07004A3E0648470067F0F
:100C710006FE120E1012085FD007D006D005D00470
:100C8100D003D002D001D000D0D0D082D083D0F018
:030C9100D0E0327E
:030043000209DED1
:1009DE00C0E0C0F0C083C082C0D075D000C000C0DF
:1009EE0001C002C003C004C005C006C007E59A20BE
:1009FE00E003020B0B539AFE900090E59BF0E0FB98
:100A0E007A006401702B900093E004F07006900061
:100A1E0092E004F0900092E0FEA3E0FF7C007D02E5
:100A2E00120318900092ECF0A3EDF0759901020BF1
:100A3E000EEB64024A7028900095E004F070069068
:100A4E000094E004F0900094E0FEA3E0FF7C007DB3
:100A5E0002120318900094ECF0A3EDF0020B0E902E
:100A6E000090E0FB7A006403703F900096E0700403
:100A7E00A3E06401700590009104F0900097E004EB
:100A8E00F07006900096E004F0900096E0FEA3E071
:100A9E00FF7C007D02120318900096ECF0A3EDF09F
:100AAE0090000CE4F0A3F08057EB64044A70081237
:100ABE000D75120E6C8049900096E07002A3E070E6
:100ACE000B900090E0F5991210308034900090E079
:100ADE00FD90000DE025E0FF90000CE033FE740267
:100AEE002FF58274003EF583E4F0A3EDF090000D37
:100AFE00E004F0700690000CE004F08003539AFDC1
:100B0E00D007D006D005D004D003D002D001D0003B
:0B0B1E00D0D0D082D083D0F0D0E032E5
:100CA000020046E493A3F8E493A34003F68001F224
:100CB00008DFF48029E493A3F85407240CC8C33355
:100CC000C4540F4420C8834004F456800146F6DF24
:100CD000E4800B0102040810204080900ED1E47ED5
:100CE000019360BCA3FF543F30E509541FFEE49319
:100CF000A360010ECF54C025E060A840B8E493A3E0
:100D0000FAE493A3F8E493A3C8C582C8CAC583CA0A
:100D1000F0A3C8C582C8CAC583CADFE9DEE780BEC2
:010EF90000F8
:1002B100EF8DF0A4A8F0CF8CF0A428CE8DF0A42E61
:0202C100FE221B
:1002C300BC000BBE0029EF8DF084FFADF022E4CC1F
:1002D300F875F008EF2FFFEE33FEEC33FCEE9DECE8
:1002E300984005FCEE9DFE0FD5F0E9E4CEFD22ED2E
:1002F300F8F5F0EE8420D21CFEADF075F008EF2F78
:10030300FFED33FD4007985006D5F0F222C398FD68
:050313000FD5F0EA2205
:10031800C2D5EC30E709B2D5E4C39DFDE49CFCEE00
:1003280030E715B2D5E4C39FFFE49EFE1202C3C3B3
:10033800E49DFDE49CFC80031202C330D507C3E4AE
:060348009FFFE49EFE226F
:10034E00A3F8E0C5F025F0F0E58215827002158362
:06035E00E0C838F0E822BF
:10036400EB9FF5F0EA9E42F0E99D42F0E89C45F0EF
:010374002266
:0C037500ECF0A3EDF0A3EEF0A3EFF022FB
:10038100A8828583F0D083D0821203981203981239
:100391000398120398E473E493A3C583C5F0C5835E
:1003A100C8C582C8F0A3C583C5F0C583C8C582C8C6
:0103B1002229
:1003B200E709F60870FA8046E709F20870FA803E0B
:1003C20088828C83E709F0A370FA807EE309F6083D
:1003D20070FA8076E309F20870FA806E88828C8364
:1003E200E309F0A370FA806289828A83E0A3F608A7
:1003F20070FA805689828A83E0A3F20870FA804AF2
:1004020080D280FA80C680D4806580F280318010EC
:1004120080A680EA809A80A880DA80E280CA803151
:1004220089828A83ECFAE493A3C8C582C8CCC583C7
:10043200CCF0A3C8C582C8CCC583CC70E9800D8935
:10044200828A83E493A3F60870F9ECFAA9F0EDFB33
:100452002289828A83ECFAE0A3C8C582C8CCC5830C
:10046200CCF0A3C8C582C8CCC583CC70EA80DD8934
:10047200828A83E493A3F20870F980CE88F0ED2497
:1004820002B4040050C4F582EB2402B4040050BA52
:0904920023234582239004027328
:10049B00EF4E6012EF60010EEDBB010B89828A8378
:1004AB00F0A3DFFCDEFA2289F05007F709DFFCA985
:0C04BB00F022BBFEFCF309DFFCA9F022DC
:00000001FF
